:1000000045C0000053C0000051C000004FC00000B8
:100010004DC000004BC0000049C0000047C00000B8
:1000200045C0000043C0000041C000003FC00000C8
:100030003DC000003BC0000039C0000037C00000D8
:1000400035C0000033C0000031C000002FC00000E8
:100050002DC000002BC0000029C0000027C00000F8
:1000600025C0000023C0000021C000001FC0000008
:100070001DC000001BC0000019C0000017C0000018
:1000800015C0000013C0000011C0000011241FBEE5
:10009000CFEFD0E1DEBFCDBF21E0A0E0B1E001C0F5
:1000A0001D92AE30B207E1F7EED029C1A9CF81E3AE
:1000B00090E0E1D020E049E350E06AE370E088E0BE
:1000C00091E0A5D021E049E350E06AE370E081E0EF
:1000D00091E09DD083E08093070181E0809300014F
:1000E000089582E390E0CAC008958FE080930701ED
:1000F000089580910001823099F128F4882351F00D
:100100008130D9F00895833009F43CC0843009F47B
:100110004BC0089588E091E087D0813029F4E5DF75
:1001200081E080930001089581E091E07DD08130ED
:1001300009F04AC010920001089588E091E074D05F
:10014000813029F4D2DF82E080930001089581E0BC
:1001500091E06AD0813009F037C010920001089513
:1001600088E091E061D0813029F4BFDF83E08093A3
:100170000001089581E091E057D0813029F5109277
:100180000001089588E091E04FD0813029F4ADDF7F
:1001900084E080930001089581E091E045D08130B2
:1001A00099F410920001089588E091E03DD08130EB
:1001B00021F49BDF10920001089581E091E034D09A
:1001C000813011F41092000108956091070182E3DB
:1001D00090E057C0089580910001823079F028F4B2
:1001E000882341F0813041F00895833049F0843014
:1001F00049F0089576CF0895E8CF0895E6CF0895A1
:10020000E4CF0895E2CF089574DFE5CF0895FC01AF
:10021000CB017183608353834283258331E0348330
:10022000422F61E03CC00895CF93DF93EC016D81D4
:100230008A8153D081110BC081E08C838FE39CE9CC
:100240000197F1F700C000001C8280E011C08823F4
:1002500061F08C8181110BC08FE39CE90197F1F76C
:1002600000C0000081E08C8303C082E001C082E016
:10027000DF91CF91089560E009C0089560E02AC041
:10028000089528C0089513DFBFDFFECF611104C0B9
:100290002FEFFC0120830895FC0110820895611165
:1002A0000CC0FC01508121E030E002C0220F331F5E
:1002B0004A95E2F7252B20830895FC01508121E027
:1002C00030E002C0220F331F4A95E2F72095252324
:1002D00020830895FC0160830895CF93DF931F92DC
:1002E000CDB7DEB78983898190E002C09595879567
:1002F0006A95E2F781700F90DF91CF910895F8949D
:02030000FFCF2D
:00000001FF
