S011000053746F7057617463682E7372656376
S113000045C0000060C000005EC000005CC000008D
S11300105AC0000058C0000056C0000054C0000080
S113002052C0000050C000004EC000004CC0000090
S11300304AC0000048C0000046C0000044C00000A0
S113004042C0000040C000003EC000003CC00000B0
S11300503AC0000038C0000036C0000034C00000C0
S113006032C0000030C000002EC000002CC00000D0
S11300702AC0000028C0000026C0000024C00000E0
S113008022C0000020C000001EC0000011241FBEBA
S1130090CFEFD0E1DEBFCDBF11E0A0E0B1E0E0E4FE
S11300A0F4E000E00BBF02C007900D92AA30B10744
S11300B0D9F721E0AAE0B1E001C01D92A631B20750
S11300C0E1F78FD1BBC19CCF6CD020E049E350E075
S11300D06AE370E080E191E02CD010920F0110925D
S11300E00E0181E080930D01089580910D01882314
S11300F059F08130E9F46FD180E191E027D081306B
S1130100B9F410920D01089566D180910E01909179
S11301100F019C012F5F3F4F30930F0120930E017D
S113012055D180E191E012D0813011F480930D011A
S11301300895FC01CB01718360835383428325833B
S113014031E03483422F61E04FC10895FC01A28164
S1130150B3818C9121E030E0058002C0220F331F6F
S11301600A94E2F7282359F481E084838FE39CE91D
S11301700197F1F700C00000148280E00895222363
S113018061F0848181110BC08FE39CE90197F1F741
S113019000C0000081E08483089582E0089582E035
S11301A0089582B1806F82B98FEF809361000895C2
S11301B0CF93DF93CDB7DEB72A970FB6F894DEBF9F
S11301C00FBECDBFAC018AE0E0E0F1E0DE011196A4
S11301D001900D928A95E1F780910A0190E00196D1
S11301E083709078992324F401978C6F9F6F019604
S11301F080930A01813009F446C038F0823009F452
S11302007AC0833009F4ADC0D8C083B1806F83B99C
S11302109A01369527953695279536952795A5EC19
S1130220B0E2FDD0AC01529542954F7045275F7006
S113023045279A01ADECBCECF2D09695879596953E
S11302408795969587959C01220F331F880F991FD8
S1130250880F991F880F991F820F931F9A01281BDB
S1130260390BE1E0F0E0EC0FFD1FE20FF31F80819A
S1130270809362008FEE83B98FE99FE00197F1F7D5
S113028000C000009AC083B1806F83B99A0136958B
S1130290279536952795ABE7B4E1C1D0AC015695C7
S11302A047959A01ADECBCECBAD096958795969596
S11302B08795969587959C01220F331F880F991F68
S11302C0880F991F880F991F820F931F9A01281B6B
S11302D0390BE1E0F0E0EC0FFD1FE20FF31F80812A
S11302E0809362008FED83B98FE99FE00197F1F766
S11302F000C0000062C083B1806F83B99A01ADEC85
S1130300BCEC8DD0AC0156954795569547955695BE
S113031047959A0184D09695879596958795969555
S113032087959C01220F331F880F991F880F991FEF
S1130330880F991F820F931F9A01281B390BE1E044
S1130340F0E0EC0FFD1FE20FF31F80818093620049
S11303508FEB83B98FE99FE00197F1F700C00000AC
S11303602CC083B1806F83B99A01ADECBCEC57D03B
S11303709695879596958795969587959C01220FD6
S1130380331F880F991F880F991F880F991F820F99
S1130390931F9A01281B390BE1E0F0E0EC0FFD1FDD
S11303A0E20FF31F8081809362008FE783B98FE9A6
S11303B09FE00197F1F700C000002A960FB6F89469
S11303C0DEBF0FBECDBFDF91CF91089590930C0196
S11303D080930B01089580910B0190910C01E8CE5C
S11303E0089572DE82DEFECF61110CC0FC015081E3
S11303F021E030E002C0220F331F4A95E2F7252B9B
S113040020830895FC01508121E030E002C0220FD6
S1130410331F4A95E2F72095252320830895A29F50
S1130420B001B39FC001A39F700D811D1124911DC4
S1130430B29F700D811D1124911D0895F894FFCF72
S10D04403F065B4F666D7D077F6F7A
S9030000FC
