:1000000045C0000053C0000051C000004FC00000B8
:100010004DC000004BC0000049C0000047C00000B8
:1000200045C0000043C0000041C000003FC00000C8
:100030003DC000003BC0000039C0000037C00000D8
:1000400035C0000033C0000031C000002FC00000E8
:100050002DC000002BC0000029C0000027C00000F8
:1000600025C0000023C0000021C000001FC0000008
:100070001DC000001BC0000019C0000017C0000018
:1000800015C0000013C0000011C0000011241FBEE5
:10009000CFEFD0E1DEBFCDBF21E0A0E0B1E001C0F5
:1000A0001D92AD31B207E1F79DD19FC1A9CF10924A
:1000B0000B01109218011092190110921A0110925E
:1000C0001B018BD120E049E350E06AE370E08CE053
:1000D00091E043D121E049E350E06AE370E082E13E
:1000E00091E03BD122E049E350E06AE370E084E034
:1000F00091E033D110921C0108958CE080930A01A5
:100100006FC1089584E180930A016AC1089581E274
:1001100080930A0165C1089582E280930A0160C15B
:1001200008950F931F9380910B01813099F138F05E
:10013000823009F45AC0833009F481C0A8C0DDDFE1
:100140008091180190911901A0911A01B0911B01A1
:1001500040910001509101016091020170910301F1
:100160008C019D01041B150B260B370BB901A8014F
:10017000483B5B406105710508F489C0809300012C
:1001800090930101A0930201B093030181E0809359
:100190000B017DC0B7DF8091180190911901A091EA
:1001A0001A01B0911B014091000150910101609131
:1001B0000201709103018C019D01041B150B260B9C
:1001C000370BB901A801483E53406105710508F499
:1001D0005EC08093000190930101A0930201B0934F
:1001E000030182E080930B0152C091DF80911801DE
:1001F00090911901A0911A01B0911B014091000149
:100200005091010160910201709103018C019D01E7
:10021000041B150B260B370BB901A801483B5B40AB
:1002200061057105A0F18093000190930101A093F5
:100230000201B093030183E080930B0128C06CDFBF
:100240008091180190911901A0911A01B0911B01A0
:1002500040910001509101016091020170910301F0
:100260008C019D01041B150B260B370BB901A8014E
:10027000483E53406105710550F080930001909312
:100280000101A0930201B093030110920B011F9191
:100290000F91089580910B01813079F028F0823020
:1002A000B1F08330F1F0089528DF84E091E06AD066
:1002B0008130F9F480930B01089524DF84E091E00C
:1002C00061D08130B1F482E080930B0108951FDF8B
:1002D00084E091E057D0813061F483E080930B019A
:1002E00008951ADF84E091E04DD0813011F410922E
:1002F0000B0108958CE091E045D0813019F4109203
:100300001C0107C082E191E03DD0813011F480935F
:100310001C0180911C01882319F0813019F003C061
:1003200000DF01C0B7DF8FE99FE00197F1F700C060
:1003300000008091180190911901A0911A01B091CB
:100340001B010196A11DB11D809318019093190105
:10035000A0931A01B0931B010895FC01718360837F
:1003600053834283258381E08483FB01308181E0D4
:1003700090E002C0880F991F2A95E2F780958323A9
:1003800080830895FC01A281B3818C9121E030E04B
:10039000058002C0220F331F0A94E2F7282359F484
:1003A00081E084838FE39CE90197F1F700C00000AE
:1003B000148280E00895222361F0848181110BC0B2
:1003C0008FE39CE90197F1F700C0000081E084838E
:1003D000089582E0089582E008958FEF81BB08952B
:0E03E00082BB089564DE86DFFECFF894FFCF67
:00000001FF
