S00C0000554152542E73726563DC
S113000045C0000060C000005EC000005CC000008D
S11300105AC0000058C0000056C0000054C0000080
S113002052C0000050C000004EC000004CC0000090
S11300304AC0000048C0000046C0000044C00000A0
S113004042C0000040C000003FC000003CC00000AF
S11300503AC0000038C0000036C0000034C00000C0
S113006032C0000030C000002EC000002CC00000D0
S11300702AC0000028C0000026C0000024C00000E0
S113008022C0000020C000001EC0000011241FBEBA
S1130090CFEFD0E1DEBFCDBF11E0A0E0B1E0EAEEEA
S11300A0F1E000E00BBF02C007900D92A631B1074A
S11300B0D9F721E0A6E1B1E001C01D92AC37B20747
S11300C0E1F729D090C09CCF1F920F920FB60F92E8
S11300D011240BB60F922F933F934F935F936F931B
S11300E07F938F939F93AF93BF93EF93FF9336D0F8
S11300F0FF91EF91BF91AF919F918F917F916F91FC
S11301005F914F913F912F910F900BBE0F900FBEB7
S11301100F901F901895789415D080E091E042D00C
S113012056D0882329F058D086E091E03BD057D0B0
S11301302FEF83ED90E3215080409040E1F700C021
S11301400000EBCF8AB188618AB98BB182608BB928
S11301508AB180688AB98FEC89B908959CB19A30C4
S113016091F4E0911601AE2FB0E0A95EBE4F9C93CE
S1130170EF5FF0E0E95EFE4F10821092160181E01D
S113018080937B01089580911601E82FF0E0E95EE9
S1130190FE4F90838F5F8093160108955D9BFECF81
S11301A08CB908950F931F93CF93DF938C01C0E014
S11301B0D0E002C0F3DF2196F801EC0FFD1F80812F
S11301C08111F8CFDF91CF911F910F910895809104
S11301D07B01811181E0089510927B01089587E1EC
S10D01E091E0E0CF0895F894FFCFFA
S11301EA544553540A00526563656976652044612F
S10901FA7461203A2000AC
S9030000FC
