:1000000045C0000061C000005FC000005DC000008E
:100010005BC0000059C0000057C0000055C0000080
:1000200053C00000CFC500004FC000004DC000000D
:100030004BC0000049C0000047C0000045C00000A0
:1000400071C5000041C0000096C500003DC0000021
:100050003BC0000039C0000037C0000035C00000C0
:1000600033C0000031C000002FC000002DC00000D0
:100070002BC0000029C0000027C0000025C00000E0
:1000800023C0000021C000001FC0000011241FBEBB
:10009000CFEFD0E1DEBFCDBF11E0A0E0B1E0E6E8F8
:1000A000F4E100E00BBF02C007900D92A639B10742
:1000B000D9F722E0A6E9B1E001C01D92AF33B20743
:1000C000E1F7A8D50C94410A9BCF4DD321D60BD68E
:1000D00013D6D3D420E049E350E06AE370E08AEB22
:1000E00091E009D321E049E350E06AE370E084EB5A
:1000F00091E001D38FEF81BB1092B2011092B30156
:1001000008958091B201882319F0813061F008953B
:1001100084EB91E0FDD2813079F48093B20184E0E8
:100120008093B301089584EB91E0F2D2813021F401
:100130001092B2011092B30108958091B301813001
:1001400091F028F08230D9F0833029F108958AEBBC
:1001500091E0DED2813049F58BE091E009D681E073
:100160008093B30108958AEB91E0D2D28130E9F413
:100170008AE191E0FDD582E08093B30108958AEB96
:1001800091E0C6D2813089F48BE291E0F1D583E031
:100190008093B30108958AEB91E0BAD2813029F4BB
:1001A0008BE391E0E5D51092B30108958091B301FE
:1001B000843019F0853069F008958AEB91E0A8D277
:1001C000813091F48AE491E0D3D585E08093B30146
:1001D00008958AEB91E09CD2813031F48BE591E077
:1001E000C7D584E08093B3010895CF93DF93D8D52A
:1001F0008823B9F1D2D5D7D5C82FD92F6BE371E0B9
:1002000049D6892B19F41092B30120C06BE071E03C
:100210008C2F9D2F3FD6892B21F481E08093B20152
:1002200015C06AE171E08C2F9D2F34D6892B21F403
:1002300082E08093B2010AC06BE271E08C2F9D2FA7
:1002400029D6892B19F483E08093B201DF93CF93F1
:100250008EE691E09F938F9326D60F900F900F908C
:100260000F90DF91CF910895CF93DF9399D5882395
:1002700021F193D598D5D82FC92F9F938F938EE6D0
:1002800091E09F938F930FD66AE471E08D2F9C2F9E
:1002900001D60F900F900F900F90892B21F485E0DD
:1002A0008093B3010AC06BE571E08D2F9C2FF2D5CE
:1002B000892B19F484E08093B301DF91CF910895E5
:1002C00080E090E06DD28FE39CE90197F1F700C0E8
:1002D00000001092890010928800089582EC91E04D
:1002E0005FD28FE39CE90197F1F700C00000109204
:1002F000890010928800089584E893E051D28FE33A
:100300009CE90197F1F700C000001092890010925B
:100310008800089586E495E043D28FE39CE9019735
:10032000F1F700C000001092890010928800089533
:1003300080E008958091B301813021F080F0823017
:1003400041F00895F5DF882381F082E08093B301C6
:100350000895EEDF882349F01092B3010895E8DF95
:10036000882319F081E08093B30108958091B3014F
:10037000823099F0833019F08130A9F407C0D8DFBA
:10038000882389F081E08093B3010895D1DF882329
:1003900051F082E08093B3010895CADF882319F0F9
:1003A00083E08093B30108958091B3018230A1F07E
:1003B00028F4882349F0813059F008958430C1F041
:1003C00078F0853089F008958FEF82BB79CF08955A
:1003D00084E082BB83CF089588E082BB8DCF0895EF
:1003E00080E182BB97CF08958CE082BBA3CF0895B4
:1003F00084E182BBBBCF0895C7D183DE9EDEF5DEEC
:10040000D5DE32DFD1DFC6C108950F931F93CF939E
:10041000DF93CDB7DEB76E970FB6F894DEBF0FBE91
:10042000CDBF8CE0E1E7F1E08E010F5F1F4FD801F7
:1004300001900D928A95E1F7A80163E080E069D30D
:10044000B2D49F938F938DE791E09F938F931F93E7
:100450000F933CD5A80164E081E05BD30F900F902F
:100460000F900F900F900F906E960FB6F894DEBF1E
:100470000FBECDBFDF91CF911F910F910895409195
:10048000C2015091C3014F5F5F4F9A013695279586
:100490003695279536952795A5ECB0E2B6D492957A
:1004A00082958F7089279F70892768EE73E0869FF9
:1004B0009001879F300D969F300D1124CA01821B39
:1004C000930B9093C3018093C201892BF9F480911F
:1004D000C60190E001966CE370E068D48093C60199
:1004E000811114C08091C00190E001966CE370E02E
:1004F0005DD48093C001811109C08091C40190E056
:10050000019668E170E052D48093C40108955FD1F0
:1005100022E049E350E06AE370E08DEC91E0EBD03B
:1005200024E049E350E06AE370E087EC91E0E3D037
:100530001092C3011092C2018AE08093C60110920A
:10054000C0011092C4011092D3011092C101109207
:10055000C5010895FC018081882321F11092C30117
:100560001092C2011092C6011092C0011092C401F3
:100570009091C1019B5F9093C10189E8989F812D63
:100580001124829586958770FCE38F9F9019112422
:10059000911126C08091C5018F5F8093C501109293
:1005A000C1011EC0FB0180818823D1F01092C301DC
:1005B0001092C2011092C6011092C0011092C401A3
:1005C0008091C101811109C08091C5018150809342
:1005D000C50187E38093C10103C085508093C101A9
:1005E0008091C1019091C001891778F02091C501D7
:1005F0003091C401231748F0231B891BF4E62F9F79
:10060000800D112480939601089510929601109206
:100610009B0108958091960190E0EBD19091C501E6
:100620008091C40198130AC09091C1018091C001CA
:10063000981304C01092B2011092B30108950F9361
:100640001F93CF93DF938C01EB0184DFBE01C801C0
:10065000E1DFF80110821882DF91CF911F910F9195
:100660000895EF92FF920F931F93CF93DF93CDB72F
:10067000DEB76E970FB6F894DEBF0FBECDBFF09019
:10068000C5018091C401F81AE090C1018091C001B8
:10069000E81A89D39F938F938DE791E09F938F936F
:1006A0008E010F5F1F4F1F930F9310D4A80164E0BA
:1006B00080E02FD21F92EF921F92FF9281E891E08B
:1006C0009F938F931F930F9301D4A80164E081E05F
:1006D00020D20FB6F894DEBF0FBECDBF6E960FB618
:1006E000F894DEBF0FBECDBFDF91CF911F910F9168
:1006F000FF90EF900895FC01CB01718360835383D9
:100700004283258331E03483422F61E0B4C20895EF
:10071000FC01A281B3818C9121E030E0058002C010
:10072000220F331F0A94E2F7282359F481E08483CF
:100730008FE39CE90197F1F700C00000148280E08C
:100740000895222361F0848181110BC08FE39CE91D
:100750000197F1F700C0000081E08483089582E0F2
:10076000089582E00895EAE8F0E080818360808364
:10077000808188618083EBE8F0E080818260808303
:1007800082B1886082B90895EBE8F0E080818068EA
:1007900080830895EBE8F0E080818F738083089573
:1007A0009C0140E050E060E970ED83E090E011D3FF
:1007B00021503109E0E8F0E031832083808191818C
:1007C000969587959093870080938600089584B3CB
:1007D000806F84BB8FEF8093610008950F931F9308
:1007E000CF93DF93CDB7DEB72B970FB6F894DEBF6C
:1007F0000FBECDBF8C018BE0E0E0F1E0DE01119691
:1008000001900D928A95E1F78091970190E0019611
:1008100065E070E0CBD280939701823009F478C014
:1008200030F4882359F0813009F440C0D7C08330B8
:1008300009F49EC0843009F4C2C0D0C085B3806F73
:1008400085BB98013695279536952795369527953A
:10085000A5ECB0E2DAD2AC01529542954F70452733
:100860005F7045279A01ADECBCECCFD29695879589
:1008700096958795969587959C01220F331F880F33
:10088000991F880F991F880F991F820F931F9A0134
:10089000281B390BE1E0F0E0EC0FFD1FE20FF31F26
:1008A0008081809362008FEE85BB98C085B3806F96
:1008B00085BB98013695279536952795ABE7B4E12A
:1008C000A4D2AC01569547959A01ADECBCEC9DD2F3
:1008D0009695879596958795969587959C01220F75
:1008E000331F880F991F880F991F880F991F820F38
:1008F000931F9A01281B390BE1E0F0E0EC0FFD1F7C
:10090000E20FF31F8081809362008FED85BB66C08C
:1009100085B3806F85BB9801ADECBCEC76D2AC01A1
:100920005695479556954795569547959A016DD298
:100930009695879596958795969587959C01220F14
:10094000331F880F991F880F991F880F991F820FD7
:10095000931F9A01281B390BE1E0F0E0EC0FFD1F1B
:10096000E20FF31F8081809362008FEB85BB36C05E
:1009700085B3806F85BB9801ADECBCEC46D29695F3
:10098000879596958795969587959C01220F331F9D
:10099000880F991F880F991F880F991F820F931F27
:1009A0009801281B390BE1E0F0E0EC0FFD1FE20F8E
:1009B000F31F8081809362008FE785BB0FC085B3F2
:1009C000806F85BB80919801882321F08B8580936F
:1009D000620002C0109262008FED85BB2B960FB6AD
:1009E000F894DEBF0FBECDBFDF91CF911F910F9165
:1009F000089590939A0180939901089580919901A7
:100A000090919A01EBCE089540E065E088E390E094
:100A100050C1089541E065E088E390E04AC108953F
:100A200040E066E088E390E044C1089541E067E07B
:100A300088E390E03ED18FE99FE00197F1F700C095
:100A40000000089540E067E088E390E032D18FE94C
:100A50009FE00197F1F700C000000895682F85E33B
:100A600090E024C10895CF93C82FCEDFD9DFDEDF19
:100A70008C2FF4DFE7DFCF9108958FE59AEE019791
:100A8000F1F700C0000088E3EEDF8FE19EE40197FC
:100A9000F1F700C0000088E3E6DF8FE99FE00197EF
:100AA000F1F700C0000088E3DEDF88E3DCDF88E0E8
:100AB000DADF81E0D8DF86E0D6DF8CE0D4CF08959E
:100AC000CF93C82FA7DFACDFB1DF8C2FC7DFBADF32
:100AD000CF9108950F931F93CF93DF938C01C0E0C4
:100AE000D0E002C0EDDF2196F801EC0FFD1F808100
:100AF0008111F8CFDF91CF911F910F9108956F7001
:100B0000817090E4899F600D1124862F8058ABCFAF
:100B10000895CF93DF93EA01F2DFCE01DBDFDF91AF
:100B2000CF9108951F920F920FB60F9211240BB61A
:100B30000F922F933F934F935F936F937F938F9376
:100B40009F93AF93BF93EF93FF9358DF88E782BFE4
:100B5000FF91EF91BF91AF919F918F917F916F9195
:100B60005F914F913F912F910F900BBE0F900FBE51
:100B70000F901F9018951F920F920FB60F9211248D
:100B80000BB60F922F933F934F935F936F937F9387
:100B90008F939F93AF93BF93EF93FF93C5D0FF9134
:100BA000EF91BF91AF919F918F917F916F915F91E5
:100BB0004F913F912F910F900BBE0F900FBE0F9052
:100BC0001F9018951F920F920FB60F9211240BB61B
:100BD0000F922F933F934F935F936F937F938F93D6
:100BE0009F93AF93BF93EF93FF9349DCA1DBFF91FA
:100BF000EF91BF91AF919F918F917F916F915F9195
:100C00004F913F912F910F900BBE0F900FBE0F9001
:100C10001F901895CF93DF9300D0CDB7DEB755DA8C
:100C200076DC789419821A82E7DB8DEC91E070DD36
:100C3000813011F480939B0180919B01882399F06E
:100C40008DEC91E065DD813011F4898306C087EC7D
:100C500091E05EDD813009F48A83BE016E5F7F4FD3
:100C6000CE010196ECDC80919C01882311F0F9DC27
:100C7000DBCFCBDBD9CF61110CC0FC01508121E06F
:100C800030E002C0220F331F4A95E2F7252B208364
:100C90000895FC01508121E030E002C0220F331F93
:100CA0004A95E2F72095252320830895FC0160836F
:100CB0000895FC01413059F4208181E090E002C0A8
:100CC000880F991F6A95E2F7822B8083089590819F
:100CD00021E030E002C0220F331F6A95E2F7209531
:100CE00029232083089583B7856083BF87B78160F8
:100CF00087BF82E882BF089585B5836085BD87B7C9
:100D0000806887BF85B5886085BD89EF83BD0895FC
:100D10008AB188618AB98BB182608BB98AB18068E7
:100D20008AB98FEC89B908959CB19A3091F4E09119
:100D30009D01AE2FB0E0AC52BE4F9C93EF5FF0E050
:100D4000EC52FE4F108210929D0181E08093380298
:100D5000089580919D01E82FF0E0EC52FE4F9083C2
:100D60008F5F80939D0108955D9BFECF8CB90895A0
:100D70000F931F93CF93DF938C01C0E0D0E002C0AC
:100D8000F3DF2196F801EC0FFD1F80818111F8CF70
:100D9000DF91CF911F910F9108951092380208951D
:100DA00080913802089584ED91E0089597FB072E15
:100DB00016F4009406D077FD08D036D007FC05D095
:100DC0003EF4909581959F4F0895709561957F4F62
:100DD0000895052E97FB16F400940FD057FD05D00B
:100DE00037D007FC02D046F408C0509540953095A6
:100DF00021953F4F4F4F5F4F089590958095709587
:100E000061957F4F8F4F9F4F0895A29FB001B39F71
:100E1000C001A39F700D811D1124911DB29F700D03
:100E2000811D1124911D0895AA1BBB1B51E107C010
:100E3000AA1FBB1FA617B70710F0A61BB70B881F6A
:100E4000991F5A95A9F780959095BC01CD010895F9
:100E5000A1E21A2EAA1BBB1BFD010DC0AA1FBB1FBE
:100E6000EE1FFF1FA217B307E407F50720F0A21B30
:100E7000B30BE40BF50B661F771F881F991F1A949D
:100E800069F760957095809590959B01AC01BD01C7
:100E9000CF010895FB01DC018D91019080190110B3
:100EA000D9F3990B0895CF93DF93CDB7DEB7AE0199
:100EB0004B5F5F4FFA0161917191AF0180913B02ED
:100EC00090913C0231D0DF91CF9108950F931F9301
:100ED000CF93DF93CDB7DEB72E970FB6F894DEBF72
:100EE0000FBECDBF0D891E8986E08C831A830983CE
:100EF0008FEF9FE79E838D83AE01475E5F4F6F89C3
:100F0000788DCE01019610D0EF81F885E00FF11FAA
:100F100010822E960FB6F894DEBF0FBECDBFDF91C4
:100F2000CF911F910F9108952F923F924F925F9210
:100F30006F927F928F929F92AF92BF92CF92DF92E9
:100F4000EF92FF920F931F93CF93DF93CDB7DEB74E
:100F50002B970FB6F894DEBF0FBECDBF6C017B019F
:100F60008A01FC0117821682838181FFBFC1CE01F5
:100F700001963C01F6019381F70193FD859193FF62
:100F800081917F01882309F4ADC1853239F493FD45
:100F9000859193FF81917F01853221F4B60190E024
:100FA000D6D1E8CF912C212C312CFFE1F315D8F0CC
:100FB0008B3279F038F4803279F08332A1F4232D2A
:100FC00020611DC08D3261F0803369F4232D2160D2
:100FD00016C0832D8260382EE32DE4603E2E2AC099
:100FE000F32DF8601DC037FC2DC020ED280F2A30EE
:100FF00040F08E32B9F436FC75C1232D2064322EB8
:1010000019C036FE06C08AE0989E200D1124922E4B
:1010100011C0EAE02E9E200D1124222EF32DF06245
:101020003F2E08C08C3621F4832D8068382E02C0F4
:10103000883641F4F70193FD859193FF81917F01FB
:101040008111B3CF982F9F7D9554933028F40C5F76
:101050001F4F9FE399830DC0833631F0833771F0C2
:10106000833509F055C020C0F801808189830E5F67
:101070001F4F88248394912C530112C02801F2E061
:101080004F0E511CF801A080B18036FE03C0692DBF
:1010900070E002C06FEF7FEFC5014ED14C018201BD
:1010A000F32DFF773F2E15C0280122E0420E511C80
:1010B000F801A080B18036FE03C0692D70E002C047
:1010C0006FEF7FEFC5012DD14C01F32DF0683F2E5E
:1010D000820133FC19C0822D90E088169906A0F495
:1010E000B60180E290E033D12A94F5CFF50137FCC8
:1010F000859137FE81915F01B60190E028D12110E2
:101100002A9421E0821A91088114910479F7E1C0B0
:10111000843611F0893639F5F80137FE07C0608151
:101120007181828193810C5F1F4F08C06081718142
:10113000072E000C880B990B0E5F1F4FF32DFF76C7
:101140003F2E97FF09C090958095709561957F4FD0
:101150008F4F9F4FF0683F2E2AE030E0A30133D13C
:10116000882E861844C0853731F4232D2F7EB22E69
:101170002AE030E025C0932D997FB92E8F36C1F03B
:1011800018F4883579F0AEC0803719F0883721F02F
:10119000A9C0E92FE061BE2EB4FE0DC0FB2DF460A6
:1011A000BF2E09C034FE0AC0292F2660B22E06C009
:1011B00028E030E005C020E130E002C020E132E06C
:1011C000F801B7FE07C060817181828193810C5F55
:1011D0001F4F06C06081718180E090E00E5F1F4F5D
:1011E000A301F1D0882E8618FB2DFF773F2E36FE07
:1011F0000DC0232D2E7FA22E891458F434FE0BC06F
:1012000032FC09C0832D8E7EA82E05C0B82CA32CDD
:1012100003C0B82C01C0B92CA4FE0FC0FE01E80D1C
:10122000F11D8081803321F49A2D997EA92E09C069
:10123000A2FE06C0B394B39404C08A2D867809F048
:10124000B394A3FC10C0A0FE06C0B21480F4280C16
:10125000922C9B180DC0B21458F4B60180E290E0B5
:1012600076D0B394F8CFB21418F42B1802C0982C8F
:10127000212CA4FE0FC0B60180E390E068D0A2FE4E
:1012800016C0A1FC03C088E790E002C088E590E0AA
:10129000B6010CC08A2D867851F0A1FE02C08BE207
:1012A00001C080E2A7FC8DE2B60190E050D0891425
:1012B00030F4B60180E390E04AD09A94F8CF8A9453
:1012C000F301E80DF11D8081B60190E040D081105E
:1012D000F6CF222009F44ECEB60180E290E037D05E
:1012E0002A94F7CFF6018681978102C08FEF9FEF96
:1012F0002B960FB6F894DEBF0FBECDBFDF91CF9116
:101300001F910F91FF90EF90DF90CF90BF90AF9023
:101310009F908F907F906F905F904F903F902F9015
:101320000895FC010590615070400110D8F7809538
:1013300090958E0F9F1F0895FC01615070400190A1
:101340000110D8F7809590958E0F9F1F08950F93E9
:101350001F93CF93DF93FB01238121FD03C08FEF08
:101360009FEF2CC022FF16C0468157812481358112
:101370004217530744F4A081B1819D012F5F3F4F75
:10138000318320838C93268137812F5F3F4F3783B2
:10139000268314C08B01EC01FB010084F185E02D54
:1013A0000995892BE1F6D80116968D919C91179796
:1013B000019617969C938E931697CE01DF91CF914D
:1013C0001F910F910895FA01AA27283051F1203179
:1013D00081F1E8946F936E7F6E5F7F4F8F4F9F4FC9
:1013E000AF4FB1E03ED0B4E03CD0670F781F891F0B
:1013F0009A1FA11D680F791F8A1F911DA11D6A0FD9
:10140000711D811D911DA11D20D009F468943F918B
:101410002AE0269F11243019305D3193DEF6CF018A
:101420000895462F4770405D4193B3E00FD0C9F750
:10143000F6CF462F4F70405D4A3318F0495D31FDBD
:101440004052419302D0A9F7EACFB4E0A695979510
:10145000879577956795BA95C9F7009761057105E6
:1014600008959B01AC010A2E069457954795379530
:101470002795BA95C9F7620F731F841F951FA01D8A
:061480000895F894FFCF6F
:101486003F065B4F666D7D077F6F8046616E204D20
:101496006F64653A204C4F570A0046616E204D6FC7
:1014A60064653A204D49444C450A0046616E204D1C
:1014B6006F64653A20484947480A0046616E204DE8
:1014C6006F64653A204F46460A0046616E204D6FAE
:1014D60064653A20534C4545500A0046616E204DDE
:1014E6006F64653A204E41545552414C0A002573AB
:1014F600005461626C6520436C6F636B002573203A
:101506000054696D6572203A2025303264203A20F5
:06151600253032640000E4
:00000001FF
