S010000070726F6A656374332E73726563EA
S113000045C0000053C0000051C000004FC00000B4
S11300104DC000004BC0000049C0000047C00000B4
S113002045C0000043C0000041C000003FC00000C4
S11300303DC000003BC0000039C0000037C00000D4
S113004035C0000033C0000031C000002FC00000E4
S11300502DC000002BC0000029C0000027C00000F4
S113006025C0000023C0000021C000001FC0000004
S11300701DC000001BC0000019C0000017C0000014
S113008015C0000013C0000011C0000011241FBEE1
S1130090CFEFD0E1DEBFCDBF21E0A0E0B1E001C0F1
S11300A01D92AE30B207E1F7EBD0EDC0A9CF1092AC
S11300B0070120E049E350E06AE370E088E091E062
S11300C09AD021E049E350E06AE370E081E091E0F6
S11300D092D0D1D082E080930001089590910701DD
S11300E081E0892780930701C9C008959091070191
S11300F082E0892780930701C1C008959091070188
S113010084E0892780930701B9C00895909107017D
S113011088E0892780930701B1C008958091000188
S11301208130E9F030F0823081F1833009F444C049
S113013058C0D4DF88E091E073D0813029F48093F3
S11301400001109207014DC081E091E069D0811156
S113015048C083E0809300011092070142C0C6DFCB
S113016088E091E05DD0813031F482E08093000139
S11301701092070136C081E091E052D0811131C064
S113018010920001109207012CC0B8DF88E091E0C2
S113019047D0813031F483E080930001109207014D
S11301A020C081E091E03CD081111BC081E08093AC
S11301B000011092070115C0A9DF88E091E030D05A
S11301C0813029F410920001109207010AC081E0E5
S11301D091E026D0811105C082E080930001109245
S11301E007012FEF81EE94E0215080409040E1F729
S11301F000C000000895FC0171836083538342832F
S1130200258381E08483FB01308181E090E002C09A
S1130210880F991F2A95E2F7809583238083089598
S1130220FC01A281B3818C9121E030E0058002C001
S1130230220F331F0A94E2F7282359F481E08483C0
S11302408FE39CE90197F1F700C00000148280E07D
S11302500895222361F0848181110BC08FE39CE90E
S11302600197F1F700C0000081E08483089582E0E3
S1130270089582E008958FEF81BB089582BB0895AD
S10D028016DF4CDFFECFF894FFCF29
S9030000FC
