S0180000436C6F636B4D616368696E655F4F4F502E737265631E
S113000045C0000060C000005EC000005CC000008D
S11300105AC0000058C0000056C0000054C0000080
S113002052C000007AC000004EC000004CC0000066
S11300304AC0000048C0000046C0000044C00000A0
S113004043C0000040C000003EC000003CC00000AF
S11300503AC0000038C0000036C0000034C00000C0
S113006032C0000030C000002EC000002CC00000D0
S11300702AC0000028C0000026C0000024C00000E0
S113008022C0000020C000001EC0000011241FBEBA
S1130090CFEFD0E1DEBFCDBF11E0A0E0B1E0E8E2F8
S11300A0F0E100E00BBF02C007900D92AA35B10742
S11300B0D9F721E0AAE5B1E001C01D92A138B20749
S11300C0E1F746D4AFC79CCF1F920F920FB60F92A1
S11300D011240BB60F922F933F934F935F936F931B
S11300E07F938F939F93AF93BF93EF93FF9387D3A4
S11300F082E882BFFF91EF91BF91AF919F918F9161
S11301007F916F915F914F913F912F910F900BBE13
S11301100F900FBE0F901F9018951F920F920FB65D
S11301200F9211240BB60F922F933F934F935F932B
S11301306F937F938F939F93AF93BF93EF93FF93AB
S11301405FD1FF91EF91BF91AF919F918F917F917B
S11301506F915F914F913F912F910F900BBE0F9034
S11301600FBE0F901F90189512D039D192D034D46D
S11301703CD4789480E090E086D080E090E07DD01C
S113018080E090E074C0089569D0CBC1089520E068
S113019049E350E06AE370E080E791E0E1D121E0D7
S11301A049E350E06AE370E08AE691E0D9D122E0C5
S11301B049E350E06AE370E08EE591E0D1D123E0B9
S11301C049E350E06AE370E084E691E0C9C1089530
S11301D04ED08130D1F018F08230F9F0089580E7E4
S11301E091E0CBD1813011F445C008958AE691E0C5
S11301F0C4D1813019F482E03DC008958EE591E0C8
S1130200BCD1813061F442C0089580E791E0B5D15A
S1130210813029F480E02EC0089580E02BC0089539
S1130220CF9331D0C82F29D0C130B1F48EE591E0FD
S1130230A4D1813019F480E01DD00EC084E691E091
S11302409CD1813011F41CD007C084E691E095D193
S1130250813011F480E014D0CF91089514D081112D
S113026002C0B6CF0895813009F4DACF08958091A1
S11302707601089580937601089580917701089519
S1130280809377010895809178010895809378018F
S113029008959ED107C30895AF92BF92DF92EF9263
S11302A0FF920F931F93CF93DF93CDB7DEB76E9773
S11302B00FB6F894DEBF0FBECDBFD82EF62EE42EB7
S11302C089018DEC689F812D1124869586958695EC
S11302D0880F982F990F990F890F462F481B88EE86
S11302E093E0489F9001499F300D11248E2D90E09A
S11302F0AC01440F551F880F991F880F991F880F51
S1130300991F840F951FA901480F591F980136950D
S1130310279536952795ABE7B4E186D3FC01F6958E
S1130320E7959F01ADECBCEC7FD3969587959695A8
S11303308795969587959C01220F331F880F991FE7
S1130340880F991F880F991F820F931F9F01281BE5
S1130350390BC901840F951F4DD28BE0EBE0F1E01E
S11303609E012F5F3F4F5901D90101900D928A954B
S1130370E1F7A90163E080E0E2D29801ADECBCECC6
S113038053D39695879596958795969587959F933C
S11303908F931F92EF921F92FF921F92DF9286E13A
S11303A091E09F938F93BF92AF9261D3A50162E0D6
S11303B081E0C5D20FB6F894DEBF0FBECDBF6E96F6
S11303C00FB6F894DEBF0FBECDBFDF91CF911F9162
S11303D00F91FF90EF90DF90BF90AF90089510922F
S11303E07A01109279011092800110927F0110928B
S11303F07E0110927D0110927C0110927B01089580
S113040036DF813009F08CC04091790150917A0136
S11304104F5F5F4F9A013695279536952795369508
S11304202795A5ECB0E200D3929582958F70892729
S11304309F70892768EE73E0869F9001879F300D37
S1130440969F300D1124CA01821B930B90937A015D
S113045080937901892B09F063C040917F01509109
S113046080014F5F5F4F9A01A9E8B8E8DDD2969505
S11304708795929582958F7089279F7089276CE361
S1130480689F9001699F300D1124CA01821B930B50
S11304909093800180937F01892B09F041C04091A2
S11304A07D0150917E014F5F5F4F9A01BDD29695B9
S11304B08795929582958F7089279F7089276CE321
S11304C0689F9001699F300D1124CA01821B930B10
S11304D090937E0180937D01892B11F540917B01DE
S11304E050917C014F5F5F4F9A01ABEABAEA9CD20C
S11304F0929582958F7089279F7089279C01220F7E
S1130500331F820F931F880F991F880F991F880F1D
S1130510991F9A01281B390B30937C0120937B018E
S11305200895A5DE823081F410927A011092790147
S11305301092800110927F0110927E0110927D0131
S113054010927C0110927B012091790130917A0103
S113055040917F0160917D0180917B019DCE089542
S1130560FC01CB017183608353834283258331E093
S11305703483422F61E0F8C10895FC01A281B38164
S11305808C9121E030E0058002C0220F331F0A94D1
S1130590E2F7282359F481E084838FE39CE90197EF
S11305A0F1F700C00000148280E00895222361F076
S11305B0848181110BC08FE39CE90197F1F700C09E
S11305C0000081E08483089582E0089582E0089524
S11305D082B1806F82B98FEF8093610008950F9389
S11305E01F93CF93DF93CDB7DEB72B970FB6F89455
S11305F0DEBF0FBECDBF8C018BE0E0E0F1E0DE0199
S1130600119601900D928A95E1F780915A0190E03C
S1130610019665E070E0F5D180935A01823009F4C7
S113062078C030F4882359F0813009F440C0D7C031
S1130630833009F49EC0843009F4C2C0D0C083B1B1
S1130640806F83B998013695279536952795369509
S11306502795A5ECB0E2E8D1AC01529542954F70D4
S113066045275F7045279A01ADECBCECDDD196952A
S1130670879596958795969587959C01220F331FAC
S1130680880F991F880F991F880F991F820F931F36
S11306909A01281B390BE1E0F0E0EC0FFD1FE20F9B
S11306A0F31F8081809362008FEE83B998C083B179
S11306B0806F83B998013695279536952795ABE7D2
S11306C0B4E1B2D1AC01569547959A01ADECBCECBE
S11306D0ABD19695879596958795969587959C0128
S11306E0220F331F880F991F880F991F880F991F96
S11306F0820F931F9A01281B390BE1E0F0E0EC0F05
S1130700FD1FE20FF31F8081809362008FED83B998
S113071066C083B1806F83B99801ADECBCEC84D121
S1130720AC015695479556954795569547959A0128
S11307307BD19695879596958795969587959C01F7
S1130740220F331F880F991F880F991F880F991F35
S1130750820F931F9A01281B390BE1E0F0E0EC0FA4
S1130760FD1FE20FF31F8081809362008FEB83B93A
S113077036C083B1806F83B99801ADECBCEC54D121
S11307809695879596958795969587959C01220FC2
S1130790331F880F991F880F991F880F991F820F85
S11307A0931F9801281B390BE1E0F0E0EC0FFD1FCB
S11307B0E20FF31F8081809362008FE783B90FC03B
S11307C083B1806F83B980915B01882321F08B858D
S11307D08093620002C0109262008FED83B92B9661
S11307E00FB6F894DEBF0FBECDBFDF91CF911F913E
S11307F00F91089590935D0180935C010895809119
S11308005C0190915D01EBCE089545E060E087E3E3
S113081090E0AAD046E060E087E390E0A5D047E00E
S113082060E087E390E0A0D060E084E390E093C0D0
S1130830089540E065E088E390E0B4C0089541E0A5
S113084065E088E390E0AEC0089540E066E088E3A8
S113085090E0A8C0089541E067E088E390E0A2D06A
S11308608FE99FE00197F1F700C00000089540E090
S113087067E088E390E096D08FE99FE00197F1F775
S113088000C000000895682F85E390E088C00895B3
S1130890CF93C82FCEDFD9DFDEDF8C2FF4DFE7DF85
S11308A0CF910895B2DF8FE59AEE0197F1F700C07A
S11308B0000088E3EDDF8FE19EE40197F1F700C0CB
S11308C0000088E3E5DF8FE99FE00197F1F700C0BE
S11308D0000088E3DDDF88E3DBDF88E0D9DF81E047
S11308E0D7DF86E0D5DF8CE0D3CF0895CF93C82F30
S11308F0A6DFABDFB0DF8C2FC6DFB9DFCF91089561
S11309000F931F93CF93DF938C01C0E0D0E002C01C
S1130910EDDF2196F801EC0FFD1F80818111F8CFE6
S1130920DF91CF911F910F9108956F70817090E4C2
S1130930899F600D1124862F8058AACF0895CF93E4
S1130940DF93EA01F2DFCE01DBDFDF91CF9108957F
S11309500BDC1ADCFECF611104C02FEFFC012083F5
S11309600895FC011082089561110CC0FC015081AE
S113097021E030E002C0220F331F4A95E2F7252B15
S113098020830895FC01508121E030E002C0220F51
S1130990331F4A95E2F72095252320830895FC010F
S11309A060830895FC01413059F4208181E090E096
S11309B002C0880F991F6A95E2F7822B80830895FD
S11309C0908121E030E002C0220F331F6A95E2F7E4
S11309D0209529232083089583B7856083BF87B733
S11309E0816087BF82E882BF089585B5836085BD35
S11309F087B7806887BF85B5886085BD89EF83BD6B
S1130A00089597FB072E16F4009406D077FD08D0BE
S1130A101AD007FC05D03EF4909581959F4F089518
S1130A20709561957F4F0895A29FB001B39FC00157
S1130A30A39F700D811D1124911DB29F700D811D06
S1130A401124911D0895AA1BBB1B51E107C0AA1FC5
S1130A50BB1FA617B70710F0A61BB70B881F991F5B
S1130A605A95A9F780959095BC01CD0108950F93EF
S1130A701F93CF93DF93CDB7DEB72E970FB6F894BD
S1130A80DEBF0FBECDBF0D891E8986E08C831A831D
S1130A9009838FEF9FE79E838D83AE01475E5F4F8F
S1130AA06F89788DCE01019610D0EF81F885E00F23
S1130AB0F11F10822E960FB6F894DEBF0FBECDBF85
S1130AC0DF91CF911F910F9108952F923F924F92F2
S1130AD05F926F927F928F929F92AF92BF92CF92CA
S1130AE0DF92EF92FF920F931F93CF93DF93CDB7D3
S1130AF0DEB72B970FB6F894DEBF0FBECDBF6C01E7
S1130B007B018A01FC0117821682838181FFBFC1A8
S1130B10CE0101963C01F6019381F70193FD859185
S1130B2093FF81917F01882309F4ADC1853239F4A3
S1130B3093FD859193FF81917F01853221F4B60164
S1130B4090E0D6D1E8CF912C212C312CFFE1F31584
S1130B50D8F08B3279F038F4803279F08332A1F412
S1130B60232D20611DC08D3261F0803369F4232D63
S1130B70216016C0832D8260382EE32DE4603E2E62
S1130B802AC0F32DF8601DC037FC2DC020ED280FBE
S1130B902A3040F08E32B9F436FC75C1232D20641E
S1130BA0322E19C036FE06C08AE0989E200D11240C
S1130BB0922E11C0EAE02E9E200D1124222EF32D38
S1130BC0F0623F2E08C08C3621F4832D8068382EC5
S1130BD002C0883641F4F70193FD859193FF81911A
S1130BE07F018111B3CF982F9F7D9554933028F4C2
S1130BF00C5F1F4F9FE399830DC0833631F0833719
S1130C0071F0833509F055C020C0F80180818983D3
S1130C100E5F1F4F88248394912C530112C0280126
S1130C20F2E04F0E511CF801A080B18036FE03C0E3
S1130C30692D70E002C06FEF7FEFC5014ED14C010A
S1130C408201F32DFF773F2E15C0280122E0420ECA
S1130C50511CF801A080B18036FE03C0692D70E0FC
S1130C6002C06FEF7FEFC5012DD14C01F32DF06869
S1130C703F2E820133FC19C0822D90E0881699061C
S1130C80A0F4B60180E290E033D12A94F5CFF501C7
S1130C9037FC859137FE81915F01B60190E028D140
S1130CA021102A9421E0821A91088114910479F781
S1130CB0E1C0843611F0893639F5F80137FE07C0F2
S1130CC060817181828193810C5F1F4F08C06081B4
S1130CD07181072E000C880B990B0E5F1F4FF32DAB
S1130CE0FF763F2E97FF09C090958095709561958A
S1130CF07F4F8F4F9F4FF0683F2E2AE030E0A301D3
S1130D0033D1882E861844C0853731F4232D2F7EA5
S1130D10B22E2AE030E025C0932D997FB92E8F366C
S1130D20C1F018F4883579F0AEC0803719F08837EF
S1130D3021F0A9C0E92FE061BE2EB4FE0DC0FB2D49
S1130D40F460BF2E09C034FE0AC0292F2660B22EDB
S1130D5006C028E030E005C020E130E002C020E118
S1130D6032E0F801B7FE07C060817181828193810E
S1130D700C5F1F4F06C06081718180E090E00E5FC0
S1130D801F4FA301F1D0882E8618FB2DFF773F2E2D
S1130D9036FE0DC0232D2E7FA22E891458F434FE66
S1130DA00BC032FC09C0832D8E7EA82E05C0B82C42
S1130DB0A32C03C0B82C01C0B92CA4FE0FC0FE01A3
S1130DC0E80DF11D8081803321F49A2D997EA92E9E
S1130DD009C0A2FE06C0B394B39404C08A2D8678D9
S1130DE009F0B394A3FC10C0A0FE06C0B21480F4B2
S1130DF0280C922C9B180DC0B21458F4B60180E252
S1130E0090E076D0B394F8CFB21418F42B1802C043
S1130E10982C212CA4FE0FC0B60180E390E068D08A
S1130E20A2FE16C0A1FC03C088E790E002C088E5DA
S1130E3090E0B6010CC08A2D867851F0A1FE02C064
S1130E408BE201C080E2A7FC8DE2B60190E050D0B5
S1130E50891430F4B60180E390E04AD09A94F8CF34
S1130E608A94F301E80DF11D8081B60190E040D031
S1130E708110F6CF222009F44ECEB60180E290E034
S1130E8037D02A94F7CFF6018681978102C08FEF7D
S1130E909FEF2B960FB6F894DEBF0FBECDBFDF9148
S1130EA0CF911F910F91FF90EF90DF90CF90BF9063
S1130EB0AF909F908F907F906F905F904F903F90F6
S1130EC02F900895FC010590615070400110D8F7EF
S1130ED0809590958E0F9F1F0895FC01615070407E
S1130EE001900110D8F7809590958E0F9F1F08955B
S1130EF00F931F93CF93DF93FB01238121FD03C045
S1130F008FEF9FEF2CC022FF16C0468157812481AA
S1130F1035814217530744F4A081B1819D012F5FAD
S1130F203F4F318320838C93268137812F5F3F4F3E
S1130F303783268314C08B01EC01FB010084F18507
S1130F40E02D0995892BE1F6D80116968D919C9197
S1130F501797019617969C938E931697CE01DF915F
S1130F60CF911F910F910895FA01AA27283051F1CA
S1130F70203181F1E8946F936E7F6E5F7F4F8F4FC6
S1130F809F4FAF4FB1E03ED0B4E03CD0670F781F25
S1130F90891F9A1FA11D680F791F8A1F911DA11D0A
S1130FA06A0F711D811D911DA11D20D009F4689443
S1130FB03F912AE0269F11243019305D3193DEF6EB
S1130FC0CF010895462F4770405D4193B3E00FD0A1
S1130FD0C9F7F6CF462F4F70405D4A3318F0495D8C
S1130FE031FD4052419302D0A9F7EACFB4E0A6956F
S1130FF09795879577956795BA95C9F70097610591
S1131000710508959B01AC010A2E069457954795E6
S113101037952795BA95C9F7620F731F841F951FDB
S10B1020A01D0895F894FFCF10
S11310283F065B4F666D7D077F6F8053746F70203A
S1131038576174636800253032643A253032643A63
S1131048253032643A253032640054696D65204392
S11310586C6F636B20287365632C6D696C697365A9
S113106863290054696D6520436C6F636B2028689D
S10D10786F75722C206D696E29005B
S9030000FC
