S00E000042757A7A65722E7372656394
S113000045C000004BC0000049C0000047C00000CC
S113001045C0000043C0000041C000003FC00000D4
S11300203DC000003BC0000039C0000037C00000E4
S113003035C0000033C0000031C000002FC00000F4
S11300402DC000002BC0000029C0000027C0000004
S113005025C0000023C0000021C000001FC0000014
S11300601DC000001BC0000019C0000017C0000024
S113007015C0000013C0000011C000000FC0000034
S11300800DC000000BC0000009C0000011241FBEF9
S1130090CFEFD0E1DEBFCDBF84D0C4C0B1CFEAE89A
S11300A0F0E0808183608083808188618083EBE8D5
S11300B0F0E080818260808382B1886082B9089593
S11300C0EBE8F0E08081806880830895EBE8F0E05D
S11300D080818F73808308958436910528F0893850
S11300E023E1920720F405C084E690E002C088E88A
S11300F093E19C0140E050E060E970ED83E090E022
S113010053D021503109E0E8F0E03183208380812D
S113011091819695879590938700809386000895A2
S1130120CF93DF93CDDF8EEE93E0D6DF2FEF81EE1A
S113013094E0215080409040E1F700C00000C8E8FE
S1130140D0E01982188286E295E0C6DF2FEF81EEB7
S113015094E0215080409040E1F700C000001982F3
S113016018828FE196E0B8DF2FEF81EE94E0215002
S113017080409040E1F700C00000198218828DE2AF
S113018098E0AADF2FEF81EE94E021508040904068
S1130190E1F700C000001982188298DFDF91CF9147
S11301A008957DDFBDDFFECF052E97FB16F4009486
S11301B00FD057FD05D014D007FC02D046F408C078
S11301C050954095309521953F4F4F4F5F4F08957F
S11301D090958095709561957F4F8F4F9F4F0895AF
S11301E0A1E21A2EAA1BBB1BFD010DC0AA1FBB1F37
S11301F0EE1FFF1FA217B307E407F50720F0A21BA9
S1130200B30BE40BF50B661F771F881F991F1A9415
S113021069F760957095809590959B01AC01BD013F
S10B0220CF010895F894FFCF0B
S9030000FC
