:1000000045C0000060C000005EC000005CC0000091
:100010005AC0000058C0000056C0000054C0000084
:1000200052C0000050C000004EC000004CC0000094
:100030004AC0000048C0000046C0000044C00000A4
:10004000E5C1000040C000003EC000003CC0000010
:100050003AC0000038C0000036C0000034C00000C4
:1000600032C0000030C000002EC000002CC00000D4
:100070002AC0000028C0000026C0000024C00000E4
:1000800022C0000020C000001EC0000011241FBEBE
:10009000CFEFD0E1DEBFCDBF11E0A0E0B1E0EEEBED
:1000A000F4E000E00BBF02C007900D92AA30B10748
:1000B000D9F721E0AAE0B1E001C01D92AC31B2074E
:1000C000E1F7CDD1FAC19CCF81D020E049E350E0E7
:1000D0006AE370E086E191E041D021E049E350E03D
:1000E0006AE370E08EE091E039D010921501109231
:1000F000140181E080930D01089580910D01882302
:10010000C1F0813051F57CD186E191E034D081306D
:1001100019F410920D0108958EE091E02CD08130F9
:10012000E1F4109215011092140180E090E063C197
:10013000089566D180911401909115019C012F5F63
:100140003F4F309315012093140155D186E191E082
:1001500012D0813011F480930D010895FC01CB0180
:100160007183608353834283258331E03483422F3C
:1001700061E079C10895FC01A281B3818C9121E0F5
:1001800030E0058002C0220F331F0A94E2F72823D3
:1001900059F481E084838FE39CE90197F1F700C073
:1001A0000000148280E00895222361F0848181118F
:1001B0000BC08FE39CE90197F1F700C0000081E0DC
:1001C0008483089582E0089582E0089582B1806F6B
:1001D00082B98FEF809361000895CF93DF93CDB7FD
:1001E000DEB72A970FB6F894DEBF0FBECDBFAC01C5
:1001F0008AE0E0E0F1E0DE01119601900D928A952F
:10020000E1F780910A0190E001968370907899233C
:1002100024F401978C6F9F6F019680930A018130BF
:1002200009F446C038F0823009F47AC0833009F40A
:10023000ADC0D8C083B1806F83B99A013695279538
:100240003695279536952795A5ECB0E227D1AC01D8
:10025000529542954F7045275F7045279A01ADEC46
:10026000BCEC1CD196958795969587959695879524
:100270009C01220F331F880F991F880F991F880F29
:10028000991F820F931F9A01281B390BE1E0F0E0C0
:10029000EC0FFD1FE20FF31F8081809362008FEE51
:1002A00083B98FE99FE00197F1F700C000009AC081
:1002B00083B1806F83B99A01369527953695279536
:1002C000ABE7B4E1EBD0AC01569547959A01ADECA4
:1002D000BCECE4D0969587959695879596958795ED
:1002E0009C01220F331F880F991F880F991F880FB9
:1002F000991F820F931F9A01281B390BE1E0F0E050
:10030000EC0FFD1FE20FF31F8081809362008FEDE1
:1003100083B98FE99FE00197F1F700C0000062C048
:1003200083B1806F83B99A01ADECBCECB7D0AC015E
:100330005695479556954795569547959A01AED04F
:100340009695879596958795969587959C01220F0A
:10035000331F880F991F880F991F880F991F820FCD
:10036000931F9A01281B390BE1E0F0E0EC0FFD1F11
:10037000E20FF31F8081809362008FEB83B98FE9D6
:100380009FE00197F1F700C000002CC083B1806F9F
:1003900083B99A01ADECBCEC81D096958795969582
:1003A0008795969587959C01220F331F880F991F7B
:1003B000880F991F880F991F820F931F9A01281B7E
:1003C000390BE1E0F0E0EC0FFD1FE20FF31F80813D
:1003D000809362008FE783B98FE99FE00197F1F77F
:1003E00000C000002A960FB6F894DEBF0FBECDBF46
:1003F000DF91CF91089590930C0180930B010895A4
:1004000080910B0190910C01E8CE08951F920F92FC
:100410000FB60F9211240BB60F922F933F934F9369
:100420005F936F937F938F939F93AF93BF93EF935C
:10043000FF93E6DF82E882BFFF91EF91BF91AF911A
:100440009F918F917F916F915F914F913F912F91EC
:100450000F900BBE0F900FBE0F901F90189534DEBB
:1004600078944BDEFECF61110CC0FC01508121E07D
:1004700030E002C0220F331F4A95E2F7252B20837C
:100480000895FC01508121E030E002C0220F331FAB
:100490004A95E2F72095252320830895A29FB00175
:1004A000B39FC001A39F700D811D1124911DB29FA8
:0E04B000700D811D1124911D0895F894FFCF49
:0A04BE003F065B4F666D7D077F6F00
:00000001FF
