:1000000045C0000060C000005EC000005CC0000091
:100010005AC0000058C0000056C0000054C0000084
:1000200052C0000014C300004EC000004CC00000CD
:100030004AC0000048C0000046C0000044C00000A4
:10004000DDC2000040C000003EC000003CC0000017
:100050003AC0000038C0000036C0000034C00000C4
:1000600032C0000030C000002EC000002CC00000D4
:100070002AC0000028C0000026C0000024C00000E4
:1000800022C0000020C000001EC0000011241FBEBE
:10009000CFEFD0E1DEBFCDBF11E0A0E0B1E0E6E2FE
:1000A000F7E000E00BBF02C007900D92AA30B10745
:1000B000D9F721E0AAE0B1E001C01D92A232B20757
:1000C000E1F7ECD22EC39CCF91D107D30FD320E020
:1000D00049E350E06AE370E08CE191E04FD121E028
:1000E00049E350E06AE370E08DE091E047D110927F
:1000F000190110921401109213018EE290E0909376
:100100001B0180931A018EE090E090931801809378
:10011000170110921601109215010895809119018E
:10012000813009F08CC040911301509114014F5F50
:100130005F4F9A01369527953695279536952795E1
:10014000A5ECB0E2DFD2929582958F7089279F70DF
:10015000892768EE73E0869F9001879F300D969FF8
:10016000300D1124CA01821B930B909314018093CC
:100170001301892B09F063C040911A0150911B01B2
:100180004F5F5F4F9A01A9E8B8E8BCD29695879572
:10019000929582958F7089279F7089276CE3689F5D
:1001A0009001699F300D1124CA01821B930B90931B
:1001B0001B0180931A01892B09F041C0409117015E
:1001C000509118014F5F5F4F9A019CD29695879589
:1001D000929582958F7089279F7089276CE3689F1D
:1001E0009001699F300D1124CA01821B930B9093DB
:1001F000180180931701892B11F540911501509139
:1002000016014F5F5F4F9A01ABEABAEA7BD2929533
:1002100082958F7089279F7089279C01220F331F39
:10022000820F931F880F991F880F991F880F991F9E
:100230009A01281B390B309316012093150108955C
:10024000809119018130A9F018F08230D1F0089521
:100250008CE191E0A0D0813019F4809319010895C8
:100260008DE091E098D0813071F482E080931901A3
:1002700008958CE191E08FD0813029F4109219011A
:10028000089510921901089580911901823081F426
:10029000109214011092130110921B0110921A0176
:1002A0001092180110921701109216011092150168
:1002B00040911701509118019A01ADECBCEC22D28B
:1002C0009695879596958795969587959C01220F8B
:1002D000331F880F991F880F991F880F991F820F4E
:1002E000931F9A01281B390BC90128EE33E0829F26
:1002F000B001839F700D929F700D112420911A01FF
:1003000030911B01A901440F551F220F331F220FEB
:10031000331F220F331F240F351FAB01420F531F12
:100320002091130130911401369527953695279524
:10033000ABE7B4E1E7D1FC01F695E7959F01ADECA1
:10034000BCECE0D19695879596958795969587957F
:100350009C01220F331F880F991F880F991F880F48
:10036000991F820F931F9F01281B390BC901840F0E
:10037000951F39C1089564DF87CF0895FC01CB0133
:100380007183608353834283258331E03483422F1A
:1003900061E088C10895FC01A281B3818C9121E0C4
:1003A00030E0058002C0220F331F0A94E2F72823B1
:1003B00059F481E084838FE39CE90197F1F700C051
:1003C0000000148280E00895222361F0848181116D
:1003D0000BC08FE39CE90197F1F700C0000081E0BA
:1003E0008483089582E0089582E0089582B1806F49
:1003F00082B98FEF809361000895CF93DF93CDB7DB
:10040000DEB72A970FB6F894DEBF0FBECDBFAC01A2
:100410008AE0E0E0F1E0DE01119601900D928A950C
:10042000E1F780910A0190E001968370907899231A
:1004300024F401978C6F9F6F019680930A0181309D
:1004400009F440C038F0823009F46EC0833009F4FA
:100450009BC0C0C083B1806F83B99A013695279540
:100460003695279536952795A5ECB0E24BD1AC0192
:10047000529542954F7045275F7045279A01ADEC24
:10048000BCEC40D1969587959695879596958795DE
:100490009C01220F331F880F991F880F991F880F07
:1004A000991F820F931F9A01281B390BE1E0F0E09E
:1004B000EC0FFD1FE20FF31F8081809362008FEE2F
:1004C00083B988C083B1806F83B99A013695279527
:1004D00036952795ABE7B4E115D1AC015695479514
:1004E0009A01ADECBCEC0ED19695879596958795C3
:1004F000969587959C01220F331F880F991F880FAF
:10050000991F880F991F820F931F9A01281B390B7F
:10051000E1E0F0E0EC0FFD1FE20FF31F808180931C
:1005200062008FED83B956C083B1806F83B99A01A1
:10053000ADECBCECE7D0AC01569547955695479588
:10054000569547959A01DED096958795969587950D
:10055000969587959C01220F331F880F991F880F4E
:10056000991F880F991F820F931F9A01281B390B1F
:10057000E1E0F0E0EC0FFD1FE20FF31F80818093BC
:1005800062008FEB83B926C083B1806F83B99A0173
:10059000ADECBCECB7D096958795969587959695DA
:1005A00087959C01220F331F880F991F880F991F71
:1005B000880F991F820F931F9A01281B390BE1E0C6
:1005C000F0E0EC0FFD1FE20FF31F808180936200CB
:1005D0008FE783B92A960FB6F894DEBF0FBECDBF62
:1005E000DF91CF91089590930C0180930B010895B2
:1005F00080910B0190910C0100CF08951F920F92F2
:100600000FB60F9211240BB60F922F933F934F9377
:100610005F936F937F938F939F93AF93BF93EF936A
:10062000FF93E6DF82E882BFFF91EF91BF91AF9128
:100630009F918F917F916F915F914F913F912F91FA
:100640000F900BBE0F900FBE0F901F9018951F922A
:100650000F920FB60F9211240BB60F922F933F9368
:100660004F935F936F937F938F939F93AF93BF93BA
:10067000EF93FF9353DDFF91EF91BF91AF919F9166
:100680008F917F916F915F914F913F912F910F903B
:100690000BBE0F900FBE0F901F90189515DD78942C
:1006A0006ADEFECF61110CC0FC01508121E030E018
:1006B00002C0220F331F4A95E2F7252B20830895AD
:1006C000FC01508121E030E002C0220F331F4A9527
:1006D000E2F7209525232083089583B7856083BFA3
:1006E00087B7816087BF82E882BF089585B5836040
:1006F00085BD87B7806887BF85B5886085BD89EF70
:1007000083BD0895A29FB001B39FC001A39F700D48
:10071000811D1124911DB29F700D811D1124911D09
:060720000895F894FFCFDC
:0A0726003F065B4F666D7D077F6F95
:00000001FF
